:100000000C943E000C9448000C9448000C9448005A
:100010000C9448000C9448000C9448000C94480040
:100020000C9448000C9448000C9448000C94480030
:100030000C9448000C9448000C9448000C94480020
:100040000C9448000C9448000C9448000C94480010
:100050000C9448000C9448000C9448000C94480000
:100060000C9448000C9448000C9448000C944800F0
:100070000C9448000C9448000C94480011241FBEB6
:10008000CFEFD8E0DEBFCDBF0E945D000C9495009D
:100090000C940000E0E8F0E09081916A908390E099
:1000A000909389008093880070E070938B00609338
:1000B0008A0082E08093810008958FEF8AB981B928
:1000C0006FEF8FEF0E944A002FEF83ED90E32150F6
:1000D00080409040E1F700C0000060E080E80E94AE
:1000E0004A002FEF83ED90E3215080409040E1F7EC
:1000F00000C0000060E880E00E944A002FEF83ED1E
:1001000090E3215080409040E1F700C0000060E0A3
:1001100080E00E944A002FEF83ED90E32150804061
:0E0120009040E1F700C00000CBCFF894FFCF75
:00000001FF
