:100000000C9465000C948D000C948D000C948D0064
:100010000C948D000C948D000C948D000C948D002C
:100020000C948D000C948D000C948D000C948D001C
:100030000C948D000C9460090C948D000C948D0030
:100040000C948D000C948D000C948D000C948D00FC
:100050000C948D000C948D000C948D000C948D00EC
:100060000C948D000C948D000C948D000C948D00DC
:100070000C948D000C948D000C948D00B809BB0974
:10008000BE09C109C409C709CA09CD09D009D309E4
:10009000D609D909DC09DF09E209E509E809EB0914
:1000A000EE09F109F409F709FA09FD09000A030A42
:1000B000060A090A0C0A0F0A120A150A180A1B0A6C
:1000C0001E0A210A240AE00AE40A11241FBECFEF07
:1000D000D8E0DEBFCDBF11E0A0E0B1E0E6EFF5E192
:1000E00002C005900D92A630B107D9F711E0A6E045
:1000F000B1E001C01D92A835B107E1F710E0C8ECEE
:10010000D0E004C02297FE010E94EA0AC63CD10753
:10011000C9F70E94290A0C94EE0A0C94000080B1E1
:1001200086FB882780F991E08927089580B1829520
:10013000817091E08927089580B182FB882780F93A
:1001400091E0892708951092150140910001609176
:10015000010185E290E00C94C7070E949C0088236F
:1001600019F081E0809344010E949600882319F0E1
:1001700081E0809343010E948F00882319F081E081
:10018000809342010895CF930E949600882379F0CE
:1001900080913601823059F41FC081E08093410183
:1001A0000E948F00882319F081E080934001C09164
:1001B0003601C13039F40E948F00882391F0C0933A
:1001C00040010FC0C33069F40E949C00882349F0AD
:1001D00081E08093410105C00E949C008111DDCF28
:1001E000DFCFCF9108950E949600882331F00E94BE
:1001F0009C00811104C00C948F0080E0089581E080
:1002000008950E948F00882311F090E008C00E949A
:1002100096008111FACF0E949C0091E09827892FC7
:10022000089580934A011092200110921F011092AC
:100230001201109211011092100110920F011092F0
:100240000A0110920901109248011092500181E0B8
:1002500080934F0110924401109243011092420189
:10026000109241011092400110923F0110923E0104
:1002700010923D0110923A0110923901809135019E
:1002800080933601089580914A01882321F00E94CD
:10029000F300811169C080913D0190913E010A9661
:1002A00090933E0180933D010E940101811109C09C
:1002B0008091390190913A010A9690933A01809386
:1002C00039012091390130913A01809137019091A3
:1002D00038012817390718F081E080933F010E9408
:1002E000010140913D0150913E0120913B0130912F
:1002F0003C01882309F444C08091390190913A016E
:1003000088379105E8F5C901969587958417950773
:10031000B8F580914A0181112BC032C08091420111
:10032000811106C01092400181E08093410108953F
:1003300080914401811122C081E08093400110929C
:100340004101089580914101882341F080913F014E
:10035000882321F080914001811110C00E94AD00DE
:100360000E94C30080E0089580E00E94110193CFB5
:1003700010924201109244011092430181E00895CD
:100380004217530758F6DECF0E948F00882319F0DA
:1003900083E0809335010E949600882319F082E063
:1003A000809335010E949C00882319F081E080939E
:1003B000350108958091310190913301891714F42A
:1003C0008093330190913201891714F480933201A4
:1003D0008091300190913301981714F48093330188
:1003E00090913201981714F480933201089520916E
:1003F0002B0130912C012F5F3F4F30932C01209324
:100400002B014091290150912A0124173507B8F09A
:1004100010922C0110922B01209133019091320106
:10042000882329F02F5F20933301915004C021507D
:10043000209333019F5F909332010C94DA01089569
:100440002091270130912801121613065CF42091A7
:10045000250190913201290F40912601909133019D
:10046000490F04C020913201409133010C940B09D3
:10047000CF93C82F81E00E94F7012091340130E032
:100480008C2F992787FD9095B901681B790B820FF6
:10049000931FCF910C94200290913501209132014D
:1004A00040913301913011F460E002C09330E1F3E8
:1004B0000C946F08CF93DF931F92CDB7DEB78823DC
:1004C00031F0862F0F90DF91CF910C94380280E0AD
:1004D00069830E94F70140913401842F90E0698183
:1004E000262F332727FD3095BC01620F731F821B17
:1004F000930B0F90DF91CF910C94200210921B016F
:10050000109219011092180181E080934C0140E093
:1005100061E00C9455083091400120913F01909189
:100520004101311106C0211109C091114AC00C943A
:100530007E0221110FC091111DC02BC0911101C06D
:1005400033C081113EC080918400982F917080FF4C
:1005500038C00AC091111BC061111BC0809184007A
:10056000982F917080FF15C09093500141E061E099
:1005700081E02DC061110DC0811123C080918400E4
:10058000982F917080FF05C090934E011DC0662387
:1005900011F081E011C0811114C08091840083703A
:1005A000982F9250923030F481E08093500141E0D6
:1005B00061E00DC0813029F480934D0141E060E09D
:1005C00006C081E080934E0141E061E080E00E943E
:1005D00055080C94A3008091480190914701891B14
:1005E0008093480190914501891724F48091460138
:1005F0008093480108958091270190912801181651
:1006000019062CF40A9790932801809327010895E6
:10061000CF93C82F0E94FB020E94EB0280914B01F6
:10062000909148012C2F4091320160913301891B38
:100630000E94C408CC2381F00E948F00811103C066
:1006400081E0809349010E948F008823A9F0809166
:100650004901811113C02DC00E949C00811103C06B
:1006600081E0809349010E949C00882329F08091B9
:100670004901811110C01DC080E01BC08091220182
:10068000809327011092280180912401982F919541
:10069000909326010BC08091220180932701109234
:1006A0002801809124018093260181958093250162
:1006B00081E0CF9108950E9401018823C9F08091C3
:1006C0003501823041F480913401682F70E090E070
:1006D0000E9420020BC0813019F460912D013EC0B0
:1006E000833021F480912D010E9438020C94C401C2
:1006F0000E949600882361F110922C0110922B0128
:1007000080913401682F70E090E00E942002809177
:100710003501813061F4809121018093270110928D
:100720002801809123018093260181950EC083309A
:10073000E9F6809121018093270110922801809190
:100740002301982F91959093260180932501CECF78
:100750000E949C00882331F060912E0180E00E946D
:100760005A02C4CF0E948F00882309F4BFCF809122
:100770002E01BACF0E94C40180911901882351F043
:1007800080911801865F8093180190911701891755
:10079000D4F022C00E940101811105C080911B018B
:1007A000865F80931B0190911B0180911A0198171D
:1007B0001CF081E0809319010E94F300882319F056
:1007C00081E08093190180911C01682F70E090E016
:1007D0000E944C0280E0089581E0089520910F016D
:1007E0003091100180910D0190910E012817390769
:1007F000B8F40E940101811109C08091110190910A
:1008000012010A96909312018093110180910F01B9
:10081000909110010A969093100180930F01089512
:100820000E9401012091110130911201811112C029
:10083000265F3F4F309312012093110180910D01EB
:1008400090910E018217930798F490931201809370
:10085000110108952531310528F4109212011092EA
:10086000110108952451310930931201209311018F
:10087000089580912701909128011816190604F116
:100880000E9401018823C1F08091090190910A0121
:100890000A9690930A0180930901209107013091F3
:1008A00008018217930760F010920A011092090163
:1008B000109250010C947E0210920A0110920901CC
:1008C000089580915001882309F442C00E94F300EA
:1008D000882361F080910601882319F086E40E9444
:1008E0009C0980E00E9411010C9443010E9439048C
:1008F0000E94EE0380911F01909120010A9690932F
:10090000200180931F0120911D0130911E0182174B
:100910009307E0F0209111013091120180910B01B9
:1009200090910C012817390768F01092200110925D
:100930001F011092120110921101109210011092D9
:100940000F0104C0109250010C947E020C945B03C2
:1009500080914F018823D9F00E9443018823B1F38D
:100960008091060181110E94D50710924F0180915C
:100970001501811101C002C0813011F460E005C091
:10098000823009F07DC061E080E00C948B028091A0
:100990004D01882359F180910601882371F040911F
:1009A00000016091010185E290E00E94C70760911B
:1009B000010185E290E00E94BE0781E00E940803E9
:1009C000882309F45DC080910601882341F040919D
:1009D00000016091010185E290E00E94C70710923A
:1009E0004D0181E08093500183E02CC080914E0145
:1009F000882359F180910601882371F0409100010C
:100A00006091010185E290E00E94C70760910001BA
:100A100085E290E00E94BE0780E00E9408038823E0
:100A200079F180910601882341F0409100016091A5
:100A3000010185E290E00E94C70710924E0181E01B
:100A40008093500180933501089580914C01882353
:100A5000B9F00E94BA03882399F0109220011092F5
:100A60001F011092120110921101109210011092A8
:100A70000F0110920A011092090181E08093500148
:100A80000895409100016091010185E290E00E948B
:100A9000C70780911501813019F46091000104C0ED
:100AA000823031F46091010185E290E00C94BE0740
:100AB00008951F93CF93DF9300D0CDB7DEB7CE015B
:100AC00002960E945807CE0101960E94580761E0E5
:100AD000CE0102960E946107969587959695879517
:100AE000182F60E0CE0101960E94610796958795C8
:100AF000969587958B3E20F41B3E30F012E005C0A2
:100B00001817E0F711E001C010E0CE0101960E9435
:100B10005E07CE0102960E945E07812F0F900F9014
:100B2000DF91CF911F910895809113018F5F809382
:100B3000130190911401891748F0109213010E943B
:100B400059058111809315010C944105089508956C
:100B500080EA809302011092B90080E28093B8008D
:100B6000089520E8FC0120830C94A805982F937029
:100B700089130AC0282F30E0220F331F206A3F6FED
:100B8000822F2093020108958FEF089594EA24E8BC
:100B90009093BC008091BC0087FFFCCF8091020144
:100BA0008093BB002093BC008091BC0087FFFCCFEA
:100BB0008091B900883161F784EA8093BC0080910C
:100BC000BC0087FFFCCF809102018093BB0084E8CA
:100BD0008093BC008091BC0087FFFCCF7093BB006A
:100BE00084E88093BC008091BC0087FFFCCF6093B9
:100BF000BB0084E88093BC008091BC0087FFFCCFE1
:100C00008091BC0087FFFCCF84EA8093BC00809178
:100C1000BC0087FFFCCF809102018F5F8093BB00F7
:100C200084E88093BC008091BC0087FFFCCF84E8FF
:100C30008093BC008091BC0087FFFCCF8091BB00FB
:100C4000FA01808384E98093BC0080E0089594EAEF
:100C500034E89093BC008091BC0087FFFCCF80916A
:100C600002018093BB003093BC008091BC0087FFE1
:100C7000FCCF8091B900883161F784EA8093BC0091
:100C80008091BC0087FFFCCF809102018093BB0064
:100C900084E88093BC008091BC0087FFFCCF7093F8
:100CA000BB0084E88093BC008091BC0087FFFCCF30
:100CB0006093BB0084E88093BC008091BC0087FFF8
:100CC000FCCF84EA8093BC008091BC0087FFFCCFFE
:100CD000809102018F5F8093BB0084E88093BC0009
:100CE0008091BC0087FFFCCF84EC0FC0213009F459
:100CF00084E88093BC009091BC0097FFFCCF90915A
:100D0000BB00FA019193AF0121502111EFCF84E98B
:100D10008093BC0080E0089594EA24E89093BC009E
:100D20008091BC0087FFFCCF809102018093BB00C3
:100D30002093BC008091BC0087FFFCCF8091B9005C
:100D4000883161F784EA8093BC008091BC0087FF02
:100D5000FCCF809102018093BB0084E88093BC00AB
:100D60008091BC0087FFFCCF7093BB0084E8809328
:100D7000BC008091BC0087FFFCCF6093BB0084E87F
:100D80008093BC008091BC0087FFFCCF4093BB00E8
:100D900084E88093BC008091BC0087FFFCCF84E98D
:100DA0008093BC0080E00895FB01E20FF11DDC019F
:100DB0002C9130E021503109262B372BE217F30715
:100DC00010F0F9013196962F8E2F861B34EAE4E855
:100DD0003093BC002091BC0027FFFCCF2091020182
:100DE0002093BB00E093BC002091BC0027FFFCCF08
:100DF0002091B900283161F724EA2093BC002091AA
:100E0000BC0027FFFCCF209102012093BB0024E807
:100E10002093BC002091BC0027FFFCCF7093BB0047
:100E200024E82093BC002091BC0027FFFCCF9093C6
:100E3000BB0094E89093BC009091BC0097FFFCCF5E
:100E4000982F24E80CC0FA013191AF013093BB0018
:100E50002093BC003091BC0037FFFCCF9150911122
:100E6000F2CF94E99093BC000895DF92EF92FF9245
:100E70000F931F93CF93DF937C018A01D22EEB0156
:100E80002D2DA801BE01C7010E94D406482F50E0B5
:100E9000C40FD51FD81A040F151FD110F1CF80E051
:100EA000DF91CF911F910F91FF90EF90DF90089508
:100EB00010927C0086E880937A00089510927A0060
:100EC000089580917C00807E80937C0080917C00DE
:100ED0006770682B60937C0080917A0080648093B7
:100EE0007A0080917A0084FFFCCF80917A00806143
:100EF00080937A002091780030917900932F80E0E0
:100F0000AC01420F511DCA010895089508954A9BEE
:100F10000BC08FE19EE40197F1F700C0000089B19A
:100F200082FB882780F9089580E008951092570188
:100F300010925601109254011092530110925201D6
:100F400010925501089581E0809357010895909182
:100F5000570191110AC00895EFE4F3EC3197F1F7CE
:100F600000C000002F5F3F4F05C020E030E0992710
:100F700087FD9095281739077CF308952091570134
:100F8000222321F0FC012081262B20830895FC01DF
:100F900080915701882341F08081609568236083A8
:100FA000808140954823408308958091570188238C
:100FB00021F010925201109253010895909157011F
:100FC000911180935501089580915701882341F034
:100FD0009091550191509093550181E0911101C07C
:100FE00080E0089580915701882319F081E0809373
:100FF00056010895E0E8F0E09081916A908390E0D6
:10100000909389008093880070E070938B006093C8
:101010008A0082E08093810008958091570188239F
:1010200021F060E080E00C94FA070895882311F025
:101030005F9801C05F9A662311F05E9808955E9AEA
:101040000895809157018823A9F060E081E00E9413
:1010500016086FEF8FEF0E94FA072FE78AE196E0FC
:10106000215080409040E1F700C0000060E080E047
:101070000C94FA070895809157018823A9F061E044
:1010800080E00E9416086FEF8FEF0E94FA072FE7AB
:101090008AE196E0215080409040E1F700C00000D6
:1010A00060E080E00C94FA070895CF93DF93D82F87
:1010B000C62F642F842F0E941608DD2329F06FEFBE
:1010C000C11105C080E004C0CC2331F060E08FEF97
:1010D000DF91CF910C94FA07DF91CF9108950F9390
:1010E0001F93CF93DF9300D0CDB7DEB7182F062F15
:1010F00080915701882381F160E080E02A83498351
:101100000E9416082A81332727FD3095200F311DB4
:1011100049812F3F310509F024F437FD04C0822FA7
:1011200003C08FEF01C080E0642F772767FD7095C3
:10113000610F711D6F3F710509F01CF477FD03C04D
:1011400003C06FEF01C060E00F900F90DF91CF916F
:101150001F910F910C94FA070F900F90DF91CF9190
:101160001F910F910895CF93C82F80915701882325
:1011700049F060E080E00E9416086C2F8C2FCF9120
:101180000C94FA07CF9108950F931F93CF93DF9399
:1011900000D0CDB7DEB7082F162F809157018823D6
:1011A00099F161E081E02A8349830E941608802F2B
:1011B00090E02A814981222369F0810F911D17FD5A
:1011C0009A958F3F910509F084F497FD13C0682F1D
:1011D00080E012C0840F911D47FD9A958F3F9105C5
:1011E00009F034F497FD06C006C080E06FEF04C03C
:1011F0008FEF01C080E060E00F900F90DF91CF9102
:101200001F910F910C94FA070F900F90DF91CF91DF
:101210001F910F9108950F931F93CF93DF9300D0E9
:10122000CDB7DEB7182F062F80915701882381F1A3
:1012300061E081E02A8349830E9416082A813327CE
:1012400027FD3095200F311D49812F3F310509F0D1
:1012500024F437FD04C0822F03C08FEF01C080E06B
:10126000642F772767FD7095610F711D6F3F7105C2
:1012700009F01CF477FD03C003C06FEF01C060E00C
:101280000F900F90DF91CF911F910F910C94FA075F
:101290000F900F90DF91CF911F910F910895CF93F1
:1012A000C82F80915701882349F061E081E00E94B6
:1012B00016086C2F8C2FCF910C94FA07CF910895BC
:1012C0001F920F920FB60F9211248F939F938091CC
:1012D0005201882371F080915401882311F0409AC3
:1012E00001C040988091540191E089278093540176
:1012F00001C040989F918F910F900FBE0F901F904B
:101300001895F89410928000E1E8F0E010821092B5
:1013100085001092840090938900809388008081DA
:1013200088608083808184608083EFE6F0E0808144
:10133000826080837894089590915701992309F4ED
:1013400087C090915301891709F482C0809353019B
:1013500091E0909352019093540190E0FC01BD976D
:10136000E532F10508F074C0E25CFF4F0C94E80A26
:101370008EE890E06BC086E890E068C08FE790E070
:1013800065C087E790E062C081E790E05FC08AE6D1
:1013900090E05CC084E690E059C08FE590E056C0D4
:1013A00089E590E053C084E590E050C080E590E08E
:1013B0004DC08BE490E04AC087E490E047C083E4EE
:1013C00090E044C08FE390E041C08CE390E03EC0E9
:1013D00088E390E03BC085E390E038C082E390E092
:1013E00035C08FE290E032C08DE290E02FC08AE2FB
:1013F00090E02CC088E290E029C086E290E026C010
:1014000084E290E023C082E290E020C080E290E09D
:101410001DC08EE190E01AC08CE190E017C08BE116
:1014200090E014C089E190E011C088E190E00EC026
:1014300086E190E00BC085E190E008C084E190E097
:1014400005C083E190E002C082E190E00C94810944
:1014500008950E9496070E94A3078FEF90E00E94D4
:1014600081098FEF84B987B911B88AB988E7809369
:101470004B01109249011092480122E0209347014C
:10148000109246018EEC8093450131E0309350017B
:1014900010924F0110924E0110924D0110924C018A
:1014A00010924401109243011092420110923E01A9
:1014B00010923D018EE591E090933C0180933B01B9
:1014C0008CE291E0909338018093370110922001D3
:1014D00010921F0184EC99E090931E0180931D01EE
:1014E00010924A012093350182E8809334011092D2
:1014F00033011092320184E180932E0183E28093C4
:101500002D018EE08093310182EF80933001309382
:101510002F0110922C0110922B0182E390E0909306
:101520002A018093290110922801109227018FE04F
:10153000809324012093230192E3909322018AE077
:10154000809321012AEA20931C0110921B0124E6BA
:1015500020931A0110921801909317019BEE90931B
:10156000160110921501809314011092130110922C
:101570001201109211011092100110920F018AEFC6
:1015800090E090930E0180930D0188E790E0909396
:101590000C0180930B0110920A01109209018CE852
:1015A00090E090930801809307010E9461040E94DB
:1015B00094058FE19EE40197F1F700C00000F5CF9C
:1015C00081E591E00C94850781E591E00C94860714
:1015D000EE0FFF1F0590F491E02D099410E0C8EC88
:1015E000D0E004C0FE010E94EA0A2296CA3CD1075C
:0615F000C9F7F894FFCFDB
:0615F6000201A025000027
:00000001FF
