:100000000C943E000C9448000C9448000C9448005A
:100010000C9448000C9448000C9448000C94480040
:100020000C9448000C9448000C9448000C94480030
:100030000C9448000C9448000C9448000C94480020
:100040000C9448000C9448000C9448000C94480010
:100050000C9448000C9448000C9448000C94480000
:100060000C9448000C9448000C9448000C944800F0
:100070000C9448000C9448000C94480011241FBEB6
:10008000CFEFD8E0DEBFCDBF0E944A000C94A000A5
:100090000C9400008FEF84B91AB820E080E090E063
:1000A000DC0141E032E009C021E01AC020E007C0D5
:1000B00021E080E090E0DC0113C0211111C081300B
:1000C0009105A105B10549F030F082309105A105F7
:1000D000B10531F404C035B903C045B901C015B844
:1000E0004A9BE4CF211109C00196A11DB11D8330A7
:1000F0009105A105B105E0F6D7CF81309105A105A5
:10010000B10549F030F082309105A105B105A9F69D
:100110000FC045B90EC035B9EFE7FEE33197F1F7EF
:1001200000C0000045B9EFEBFDE53197F1F705C0E0
:1001300035B9EFE3FCE93197F1F700C00000BDCF1E
:04014000F894FFCF61
:00000001FF
