:100000000C943E000C9453000C9453000C94530039
:100010000C9453000C9453000C9453000C94530014
:100020000C9453000C9453000C9453000C94530004
:100030000C9453000C9453000C9453000C945300F4
:100040000C9453000C9453000C9453000C945300E4
:100050000C9453000C9453000C9453000C945300D4
:100060000C9453000C9453000C9453000C945300C4
:100070000C9453000C9453000C94530011241FBE95
:10008000CFEFD8E0DEBFCDBF11E0A0E0B1E0E6EDFC
:10009000F4E002C005900D92A230B107D9F70E949A
:1000A0005F020C9469020C940000089580EA80932A
:1000B00000011092B90080E28093B800089520E812
:1000C000FC0120830C945600982F937089130AC06A
:1000D000282F30E0220F331F206A3F6F822F20939A
:1000E000000108958FEF089594EA24E89093BC00EE
:1000F0008091BC0087FFFCCF809100018093BB0002
:100100002093BC008091BC0087FFFCCF8091B90098
:10011000883161F784EA8093BC008091BC0087FF3E
:10012000FCCF809100018093BB0084E88093BC00E9
:100130008091BC0087FFFCCF7093BB0084E8809364
:10014000BC008091BC0087FFFCCF6093BB0084E8BB
:100150008093BC008091BC0087FFFCCF8091BC00E5
:1001600087FFFCCF84EA8093BC008091BC0087FFAE
:10017000FCCF809100018F5F8093BB0084E8809367
:10018000BC008091BC0087FFFCCF84E88093BC005A
:100190008091BC0087FFFCCF8091BB00FA01808377
:1001A00084E98093BC0080E0089594EA34E8909359
:1001B000BC008091BC0087FFFCCF80910001809340
:1001C000BB003093BC008091BC0087FFFCCF8091C6
:1001D000B900883161F784EA8093BC008091BC004B
:1001E00087FFFCCF809100018093BB0084E880935F
:1001F000BC008091BC0087FFFCCF7093BB0084E8FB
:100200008093BC008091BC0087FFFCCF6093BB0053
:1002100084E88093BC008091BC0087FFFCCF84EA17
:100220008093BC008091BC0087FFFCCF80910001CF
:100230008F5F8093BB0084E88093BC008091BC00FA
:1002400087FFFCCF84EC0FC0213009F484E8809351
:10025000BC009091BC0097FFFCCF9091BB00FA01CD
:100260009193AF0121502111EFCF84E98093BC001D
:1002700080E0089594EA24E89093BC008091BC004B
:1002800087FFFCCF809100018093BB002093BC00CE
:100290008091BC0087FFFCCF8091B900883161F765
:1002A00084EA8093BC008091BC0087FFFCCF8091E2
:1002B00000018093BB0084E88093BC008091BC0067
:1002C00087FFFCCF7093BB0084E88093BC008091D3
:1002D000BC0087FFFCCF6093BB0084E88093BC0028
:1002E0008091BC0087FFFCCF4093BB0084E88093E3
:1002F000BC008091BC0087FFFCCF84E98093BC00E8
:1003000080E00895FB01E20FF11DDC012C9130E04B
:1003100021503109262B372BE217F30710F0F90192
:100320003196962F8E2F861B34EAE4E83093BC007A
:100330002091BC0027FFFCCF209100012093BB003F
:10034000E093BC002091BC0027FFFCCF2091B900B6
:10035000283161F724EA2093BC002091BC0027FFDC
:10036000FCCF209100012093BB0024E82093BC0027
:100370002091BC0027FFFCCF7093BB0024E82093A2
:10038000BC002091BC0027FFFCCF9093BB0094E8F9
:100390009093BC009091BC0097FFFCCF982F24E86D
:1003A0000CC0FA013191AF013093BB002093BC0027
:1003B0003091BC0037FFFCCF91509111F2CF94E9FE
:1003C0009093BC000895DF92EF92FF920F931F93DA
:1003D000CF93DF937C018A01D22EEB012D2DA80152
:1003E000BE01C7010E948201482F50E0C40FD51FF3
:1003F000D81A040F151FD110F1CF80E0DF91CF91F3
:100400001F910F91FF90EF90DF9008951092C5001B
:100410008FEC8093C400E0ECF0E080818083E1EC1D
:10042000F0E0808188618083E2ECF0E010828081DE
:100430008668808308959091C00095FFFCCF8093DB
:10044000C6000895CF92DF92EF92FF920F931F9311
:10045000CF93DF931F92CDB7DEB7EE24E394F12C58
:10046000EC0EFD1EC7010E945F0081E085B900E02F
:1004700010E0DE2CCF2C07C082E085B98D2D9C2D9D
:100480000E94550012C0E12CF12CA701B8018D2D5E
:100490009C2D0E9474000F5F1F4FF70180810E9406
:1004A0001B02093C110541F3EECF0F90DF91CF9174
:1004B0001F910F91FF90EF90DF90CF9008958FEFF5
:1004C0008AB984B90E9406020E94220280E090E06C
:0604D0000895F894FFCF2F
:0204D600A00084
:00000001FF
