:100000000C943E000C9448000C9448000C9448005A
:100010000C9448000C9448000C9448000C94480040
:100020000C9448000C9448000C9448000C94480030
:100030000C9448000C9448000C9448000C94480020
:100040000C9448000C9448000C9448000C94480010
:100050000C9448000C9448000C9448000C94480000
:100060000C9448000C9448000C9448000C944800F0
:100070000C9448000C9448000C94480011241FBEB6
:10008000CFEFD8E0DEBFCDBF0E944F000C945B00E5
:100090000C94000080B186FB882780F908958FEFCB
:1000A00084B911B8C1E00E944A00882311F0C5B993
:0A00B000FACF15B8F8CFF894FFCF8F
:00000001FF
