:100000000C943E000C9448000C9448000C9448005A
:100010000C9448000C9448000C9448000C94480040
:100020000C9448000C9448000C9448000C94480030
:100030000C9448000C9448000C9448000C94480020
:100040000C9448000C9448000C9448000C94480010
:100050000C9448000C9448000C9448000C94480000
:100060000C9448000C9448000C9448000C944800F0
:100070000C9448000C9448000C94480011241FBEB6
:10008000CFEFD8E0DEBFCDBF0E944A000C949C00A9
:100090000C9400008FEF87B91AB818B8DD24D394F8
:1000A00080E001C081E04A99FDCF811102C018B8FB
:1000B000F7CFF12C81E0F81629F0CCE3D0E08BE10A
:1000C00091E404C0C0E9D1E084EC99E05C01B6940D
:1000D000A794B694A79460E070E0A5E0EA2E18B863
:1000E000AB01440F551F4F5F5F4F9C01220F331F21
:1000F0002F5F3F4FE0E0F0E0D8B8DA011197F1F759
:1001000018B8D9011197F1F7D8B8DA011197F1F7BA
:1001100018B8D9011197F1F73196EC17FD0760F384
:10012000EA946A0D7B1D8A199B09E110D8CFF394DC
:0C013000B2E0FB12BFCFBBCFF894FFCFB2
:00000001FF
