:100000000C9465000C948D000C948D000C948D0064
:100010000C948D000C948D000C948D000C948D002C
:100020000C948D000C948D000C948D000C948D001C
:100030000C948D000C94F30A0C948D000C948D009C
:100040000C948D000C948D000C948D000C948D00FC
:100050000C948D000C948D000C948D000C948D00EC
:100060000C948D000C948D000C948D000C948D00DC
:100070000C948D000C948D000C948D004B0B4E0B4A
:10008000510B540B570B5A0B5D0B600B630B660B3C
:10009000690B6C0B6F0B720B750B780B7B0B7E0B6C
:1000A000810B840B870B8A0B8D0B900B930B960B9C
:1000B000990B9C0B9F0BA20BA50BA80BAB0BAE0BCC
:1000C000B10BB40BB70BC70CCB0C11241FBECFEF79
:1000D000D8E0DEBFCDBF11E0A0E0B1E0E4ECF9E193
:1000E00002C005900D92A430B107D9F711E0A4E049
:1000F000B1E001C01D92AD36B107E1F710E0C8ECE8
:10010000D0E004C02297FE010E94D10CC63CD1076A
:10011000C9F70E94BC0B0C94D50C0C940000809184
:100120006001815009F001C084E08093600108956E
:1001300086B186FB882780F991E08927089586B1EA
:100140008295817091E08927089586B182FB882786
:1001500080F991E0892708958531910508F477C0E9
:100160009C01225131092031310510F483E407C08C
:100170009C01225231092031310518F484E40C9499
:100180002F0B9C01225331092031310510F485E4F5
:10019000F6CF9C01225431092031310510F486E458
:1001A000EECF9C01225531092031310510F487E44E
:1001B000E6CF9C01225631092031310510F488E444
:1001C000DECF9C01225731092031310510F489E43A
:1001D000D6CF9C01225831092031310510F48AE430
:1001E000CECF9C01225931092031310510F48BE426
:1001F000C6CF9C01225A31092031310510F48CE41C
:10020000BECF9C01225B31092031310510F48DE411
:10021000B6CF9C01225C31092031310510F48EE407
:10022000AECF9C01225D31092031310510F48FE4FD
:10023000A6CF9C01225E31092031310510F480E502
:100240009ECF825F91090E9720F481E598CF0C94A0
:100250006809089580915901833320F08D3820F08A
:1002600080E0089584E0089582E008959091590116
:10027000933308F44BC0843029F138F48230A1F074
:10028000D0F4813009F045C008C0863049F108F14A
:10029000873069F18830E9F531C0892F81558C3379
:1002A000D0F19135D0F135C0892F81558C33B8F11B
:1002B0009135B8F12EC0892F81558C33A8F1913535
:1002C000A8F127C0892F81558C3398F1913598F189
:1002D00020C0892F8B55823388F19B3588F119C056
:1002E000892F8B55823370F19B3578F112C0892F9D
:1002F0008B55823368F19B3568F10BC0892F8B5584
:10030000823358F19B3528F482E025C084E094E0E4
:1003100026C080E00CC082E00AC083E008C080E014
:1003200015C080E093E01BC08EEF01C08DEF90E020
:1003300016C080E010C080E09DEF11C081E003C0D6
:1003400082E004C08FEF91E00AC08EEF92E007C018
:100350008FEF04C08EEF9EEF02C081E09FEF90937D
:100360005F0180935E01089581110C948F0080914C
:1003700060018F5F853009F001C081E080936001EA
:1003800008950E94A500882319F081E080933E0122
:100390000E949F00882319F081E080933D010E9414
:1003A0009800882319F081E080933C010895CF9351
:1003B0000E949F00882379F080913001823059F4A7
:1003C0001FC081E080933B010E949800882319F0B0
:1003D00081E080933A01C0913001C13039F40E942C
:1003E0009800882391F0C0933A010FC0C33069F49C
:1003F0000E94A500882349F081E080933B0105C05D
:100400000E94A5008111DDCFDFCFCF9108950E941A
:100410009F00882331F00E94A500811104C00C9434
:10042000980080E0089581E008950E949800882354
:1004300011F090E008C00E949F008111FACF0E9445
:10044000A50091E09827892F089581E080935501B8
:1004500010926501109250018091600180934C01CF
:1004600008958093440110921A011092190110927C
:10047000100110920F0110920E0110920D011092B6
:10048000080110920701109242011092650181E06B
:100490008093640110923E0110923D0110923C0144
:1004A00010923B0110923A011092390110923801DA
:1004B00010923701109234011092330180912F0174
:1004C00080933001089580913901882349F080910B
:1004D0005701882329F010923A0110923B017EC007
:1004E00080914401882321F00E940702811168C095
:1004F00080913701909138010A969093380180934A
:1005000037010E941502811109C080913301909139
:1005100034010A9690933401809333012091330182
:1005200030913401809131019091320128173907BF
:1005300018F081E0809339010E9415024091370143
:100540005091380120913501309136018823E1F135
:10055000809133019091340188379105A8F5C90144
:10056000969587958417950778F5809144018111B8
:100570002FC02AC080913C01811106C010923A011F
:1005800081E080933B01089580913E01811126C056
:1005900081E080933A0110923B01089580913B01E4
:1005A000882341F080913901882321F080913A011C
:1005B000811114C00E94C1010E94D70180E00895FA
:1005C00080E00E94310294CF4217530798F6E6CF9D
:1005D00010923C0110923E0110923D0181E008957D
:1005E0000E949800882319F083E080932F010E94D5
:1005F0009F00882319F082E080932F010E94A500BC
:10060000882319F081E080932F01089580912B01B8
:1006100090912D01891714F480932D0190912C0154
:10062000891714F480932C0180912A0190912D0157
:10063000981714F480932D0190912C01981714F4BD
:1006400080932C01089520912501309126012F5F80
:100650003F4F309326012093250140912301509173
:10066000240124173507B8F01092260110922501B5
:1006700020912D0190912C01882329F02F5F209348
:100680002D01915004C0215020932D019F5F909324
:100690002C010C9406030895209121013091220130
:1006A000121613065CF420911F0190912C01290F62
:1006B0004091200190912D01490F04C020912C01FF
:1006C00040912D010C949E0A90912F0120912C01B4
:1006D00040912D01913011F460E002C09330E1F3BC
:1006E0000C94020ACF93DF93C62FDD27C7FDD09568
:1006F000882399F081E00E94230380915701882389
:1007000019F08091540102C080912E0190E0BC014B
:100710006C1B7D0B8C0F9D1F12C080E00E94230379
:1007200080915701882319F08091540102C0809173
:100730002E0190E0BC016C0F7D1F8C1B9D0BDF9187
:10074000CF910C944C03109215011092130110924A
:10075000120181E08093610140E061E00C94E809BE
:10076000982F80915D01843021F420915C01243028
:10077000D1F19130B9F490916001913009F42CC01D
:10078000923041F480915C0118166CF5843059F177
:1007900081E00895933009F4F7CF943021F58091EA
:1007A0005C011AC0923069F490916001913009F4B3
:1007B000E9CF923009F4E8CF933089F3943099F47B
:1007C0000BC0933081F490916001913009F4DCCF3B
:1007D000923029F3933021F4881F8827881F0895C9
:1007E000943009F4CFCF80E0089584E080935D01D8
:1007F00080935C01089580913A0120913901811123
:1008000016C090913B01211124C0911104C00E9497
:10081000A3030C94F50380915801882309F48AC03E
:1008200081E00E94B003882309F479C083C02111BC
:1008300019C090913B01911115C0809158018823F6
:1008400009F484C083E00E94B003882309F46AC0DD
:100850007DC0911107C08091570181110BC00E948A
:10086000F50308C0909157019923F1F09091390157
:10087000992349F041E061E081E00E94E80981E0CC
:10088000809365010895882309F454C080913B0149
:10089000882309F45BC080915D01843009F44AC06B
:1008A000882309F447C052C080915801882309F475
:1008B00054C09091470180914601981720F0109202
:1008C00047010E94250280915D01843031F48091BE
:1008D0005C018430A1F40C942502181684F48091F4
:1008E0003A01882311F183E00E94B00381112EC0E8
:1008F0001CC081E00E94B00381111CC0ECCF80912C
:100900003B018823F1F081E00E94B003811112C005
:1009100018C083E00E94B003811118C0DCCF0E9490
:10092000F50308C00E94F50311C080913B018111BD
:10093000E0CFD1CF81E08093630141E061E080E0CE
:100940000AC080913A018111E4CFC5CF81E0809344
:10095000620141E060E00C94E809089590915F0124
:1009600080915E01943019F4843019F408959093C5
:100970005D01843011F080935C010895CF93DF9383
:100980001F92CDB7DEB7CE0101960E94EB0860B191
:100990006270CE0101960E94F40890935B018093EF
:1009A0005A01CE0101960E94F1080F90DF91CF917C
:1009B000089580915A0190915B019695879596953F
:1009C000879590935B0180935A0180935901089514
:1009D00090915D019430C9F020915C012430A9F020
:1009E00080916001813011F4215007C0823011F4F0
:1009F000915009C0833021F42F5F20935C0108954A
:100A0000843019F49F5F90935D01089580914201B5
:100A100090914101891B8093420190913F01891778
:100A200024F4809140018093420108958091500107
:100A300090914F01891B8093500190914D0189172E
:100A400024F480914E0180935001089580912101FA
:100A500090912201181619062CF40A9790932201FE
:100A6000809321010895CF93C82F0E9426050E94EC
:100A7000060580914501909142012C2F40912C0157
:100A800060912D01891B0E94570ACC2381F00E949E
:100A90009800811103C081E0809343010E94980077
:100AA0008823A9F080914301811113C034C00E94B2
:100AB000A500811103C081E0809343010E94A5003D
:100AC000882329F080914301811115C024C080E062
:100AD00022C080911C0180932101109222018091FB
:100AE0001E01982F91959093200180931F0180E023
:100AF0000E94B4010FC080911C01809321011092CB
:100B0000220180911E0180932001819580931F0115
:100B10000E948F0081E0CF91089580914A019091C9
:100B20004B0120914801309149018217930728F425
:100B30000A9690934B0180934A010E9426050E94D9
:100B40001605809151019091500121E040912C01B6
:100B500060912D01891B0E94570A20914A01309112
:100B60004B0180914801909149012817390718F4E9
:100B70008091600103C0809160018C5F0E9436010A
:100B80000E94AE0480915D01843021F480915C016B
:100B9000843021F081E08093620108950E949800E2
:100BA000811103C081E0809343010E94980081116C
:100BB00002C080E0089580914301811105C0F9CF02
:100BC00081E08093630108951092430180E00E94C8
:100BD000B4019091600180914C019813EACFF0CF5D
:100BE0000E941502882309F180912F01823079F447
:100BF00080915701882319F08091540102C080919F
:100C00002E01682F70E090E00E944C030CC08130F0
:100C100019F46091270146C0833029F460912701BF
:100C200081E00E9472030C94F0020E949F008823CE
:100C300099F1109226011092250180915701882385
:100C400019F08091540102C080912E01682F70E04C
:100C500090E00E944C0380912F01813061F48091DB
:100C60001B01809321011092220180911D0180932C
:100C7000200181950EC08330B1F680911B018093D5
:100C800021011092220180911D01982F919590933E
:100C9000200180931F01C7CF0E94A500882321F067
:100CA0006091280180E0BDCF0E949800882309F45C
:100CB000BACF60912801B4CF0E94F0028091130155
:100CC000882351F080911201865F809312019091E8
:100CD00011018917D4F022C00E941502811105C0AC
:100CE00080911501865F8093150190911501809187
:100CF000140198171CF081E0809313010E940702F1
:100D0000882319F081E08093130180911601682FE8
:100D100070E090E00E94640380E0089581E008950F
:100D200020910D0130910E0180910B0190910C01E9
:100D300028173907B8F40E941502811109C0809163
:100D40000F01909110010A969093100180930F016A
:100D500080910D0190910E010A9690930E0180935F
:100D60000D0108950E94150220910F01309110018C
:100D7000811112C0265F3F4F3093100120930F0165
:100D800080910B0190910C018217930798F4909336
:100D9000100180930F0108952531310528F4109238
:100DA000100110920F010895245131093093100160
:100DB00020930F010895809121019091220118162E
:100DC000190604F10E9415028823C1F080910701E1
:100DD000909108010A969093080180930701209151
:100DE0000501309106018217930760F01092080107
:100DF00010920701109265010C94A3031092080150
:100E000010920701089580915F0190915E01811118
:100E100005C09F5F933040F080E008959111FCCFB2
:100E2000813011F08F3FC1F781E0089540910001BA
:100E30006091010185E290E00E945A0960910001F1
:100E400085E290E00E94510980910401882341F1DC
:100E5000409100016091010185E290E00E945A09F1
:100E60006091010185E290E00E9451098FE097E2D4
:100E70000197F1F700C0000040910001609101016D
:100E800085E290E00E945A096091000185E290E0BD
:100E90000E9451098FE097E20197F1F700C000002E
:100EA00008950E942A01811104C081E080935601B7
:100EB0000895843089F010924701809153018F5F2B
:100EC0008093530190915201981768F481E08093C8
:100ED0005701109258010895109253011092570132
:100EE00081E0809358010895809160010E9436014D
:100EF00080915601882331F00E94A0090E94680960
:100F00000C9416070E940307809356010E94AE04BA
:100F1000809104018823E1F040910001609101017A
:100F200085E290E00E945A0980915701882331F0B0
:100F30006091010185E290E00E9451098091580181
:100F4000882331F06091000185E290E00E94510910
:100F500080916501882309F43FC00E9451070E94D7
:100F60000702882339F080E00E9431020E94E804E1
:100F70000C9463020E94DB060E9490068091190186
:100F800090911A010A9690931A0180931901209169
:100F900017013091180182179307E0F020910F019B
:100FA000309110018091090190910A0128173907A9
:100FB00068F010921A01109219011092100110920B
:100FC0000F0110920E0110920D0104C010926501E4
:100FD0000C94A3030C94F005809164018823B9F06C
:100FE0000E9463028823B1F380915701811109C0E7
:100FF0008091470190914601891718F48F5F809383
:1010000047011092640160E080E00C94FB03809142
:1010100062018823C9F081E00E943305882309F426
:101020005CC080910401882341F0409100016091EF
:10103000010185E290E00E945A091092620181E06C
:101040008093650183E01BC0809163018823D1F008
:1010500080E00E943305882309F43FC08091040199
:10106000882341F0409100016091010185E290E008
:101070000E945A091092630181E080936501809378
:101080002F010895809161018823C1F00E945C06C0
:10109000882319F110921A0110921901109210016F
:1010A00010920F0110920E0110920D011092080182
:1010B0001092070181E080936501089580915501A8
:1010C000882359F00E948D05882339F0109255012C
:1010D00081E0809358011092570108954A9B05C002
:1010E00089B182FB882780F9089580E008950F93E5
:1010F0001F93CF93DF931F92CDB7DEB78E010F5FA3
:101100001F4FC8010E94EB081DC060B16270C8018A
:101110000E94F408EFE1FEE43197F1F700C000000F
:1011200096958795969587950E94AC000E946E08CB
:10113000811108C08FE295E70197F1F700C0000028
:101140000E9468090E946E088111DFCFC8010E94C9
:10115000F1080F90DF91CF911F910F910895CF93D8
:10116000DF93409100016091010185E290E00E94CF
:101170005A09D3E024C06091010185E290E00E9409
:1011800051092FE38DE093E0215080409040E1F73A
:1011900000C00000409100016091010185E290E0F3
:1011A0000E945A092FE38DE093E021508040904047
:1011B000E1F700C00000C150F1F6D15011F0C4E0D9
:1011C000DACF409100016091010185E290E0DF916A
:1011D000CF910C945A0910927C0086E880937A0093
:1011E000089510927A00089580917C00807E80930B
:1011F0007C0080917C006770682B60937C008091FC
:101200007A00806480937A0080917A0084FFFCCF1A
:1012100080917A00806180937A00209178003091EB
:101220007900932F80E0AC01420F511DCA0108954F
:10123000089508954A9B0BC08FE19EE40197F1F752
:1012400000C0000089B182FB882780F9089580E002
:10125000089510926C0110926B0110926901109226
:1012600068011092670110926A01089581E08093ED
:101270006C01089590916C0191110AC00895EFE4FA
:10128000F3EC3197F1F700C000002F5F3F4F05C02E
:1012900020E030E0992787FD9095281739077CF3E7
:1012A000089520916C01222321F0FC012081262B3E
:1012B00020830895FC0180916C01882341F0808196
:1012C000609568236083808140954823408308951A
:1012D00080916C01882321F01092670110926801BF
:1012E000089590916C01911180936A010895809105
:1012F0006C01882341F090916A01915090936A01AA
:1013000081E0911101C080E0089580916C018823F3
:1013100019F081E080936B010895E0E8F0E090819E
:10132000916A908390E0909389008093880070E0A8
:1013300070938B0060938A0082E08093810008950F
:1013400080916C01882321F060E080E00C948D098D
:101350000895882311F05F9801C05F9A662311F009
:101360005E9808955E9A089580916C018823A9F093
:1013700060E081E00E94A9096FEF8FEF0E948D0964
:101380002FE78AE196E0215080409040E1F700C0CD
:10139000000060E080E00C948D09089580916C015C
:1013A0008823A9F061E080E00E94A9096FEF8FEF28
:1013B0000E948D092FE78AE196E0215080409040FD
:1013C000E1F700C0000060E080E00C948D09089512
:1013D000CF93DF93D82FC62F642F842F0E94A909A3
:1013E000DD2329F06FEFC11105C080E004C0CC23DC
:1013F00031F060E08FEFDF91CF910C948D09DF9198
:10140000CF9108950F931F93CF93DF9300D0CDB763
:10141000DEB7182F062F80916C01882381F160E0E0
:1014200080E02A8349830E94A9092A81332727FD66
:101430003095200F311D49812F3F310509F024F4EB
:1014400037FD04C0822F03C08FEF01C080E0642FFE
:10145000772767FD7095610F711D6F3F710509F06A
:101460001CF477FD03C003C06FEF01C060E00F9074
:101470000F90DF91CF911F910F910C948D090F90D8
:101480000F90DF91CF911F910F910895CF93C82FA7
:1014900080916C01882349F060E080E00E94A909F6
:1014A0006C2F8C2FCF910C948D09CF9108950F93B1
:1014B0001F93CF93DF9300D0CDB7DEB7082F162F41
:1014C00080916C01882399F161E081E02A8349834E
:1014D0000E94A909802F90E02A814981222369F086
:1014E000810F911D17FD9A958F3F910509F084F4A6
:1014F00097FD13C0682F80E012C0840F911D47FD37
:101500009A958F3F910509F034F497FD06C006C007
:1015100080E06FEF04C08FEF01C080E060E00F90CB
:101520000F90DF91CF911F910F910C948D090F9027
:101530000F90DF91CF911F910F9108950F931F93FB
:10154000CF93DF9300D0CDB7DEB7182F062F809151
:101550006C01882381F161E081E02A8349830E9444
:10156000A9092A81332727FD3095200F311D498194
:101570002F3F310509F024F437FD04C0822F03C04A
:101580008FEF01C080E0642F772767FD7095610FB2
:10159000711D6F3F710509F01CF477FD03C003C096
:1015A0006FEF01C060E00F900F90DF91CF911F911E
:1015B0000F910C948D090F900F90DF91CF911F9197
:1015C0000F910895CF93C82F80916C01882349F023
:1015D00061E081E00E94A9096C2F8C2FCF910C94BF
:1015E0008D09CF9108951F920F920FB60F9211247B
:1015F0008F939F9380916701882371F08091690197
:10160000882311F02A9A01C02A988091690191E0FB
:1016100089278093690101C02A989F918F910F902B
:101620000FBE0F901F901895F89410928000E1E87B
:10163000F0E010821092850010928400909389004F
:10164000809388008081886080838081846080832B
:10165000EFE6F0E080818260808378940895909135
:101660006C01992309F487C090916801891709F4E6
:1016700082C08093680191E0909367019093690123
:1016800090E0FC01BD97E532F10508F074C0E25C22
:10169000FF4F0C94CF0C8EE890E06BC086E890E092
:1016A00068C08FE790E065C087E790E062C081E79F
:1016B00090E05FC08AE690E05CC084E690E059C0AC
:1016C0008FE590E056C089E590E053C084E590E056
:1016D00050C080E590E04DC08BE490E04AC087E4C4
:1016E00090E047C083E490E044C08FE390E041C0C5
:1016F0008CE390E03EC088E390E03BC085E390E05F
:1017000038C082E390E035C08FE290E032C08DE2D5
:1017100090E02FC08AE290E02CC088E290E029C0DF
:1017200086E290E026C084E290E023C082E290E06E
:1017300020C080E290E01DC08EE190E01AC08CE1F4
:1017400090E017C08BE190E014C089E190E011C0F7
:1017500088E190E00EC086E190E00BC085E190E06A
:1017600008C084E190E005C083E190E002C082E11E
:1017700090E00C94140B08950E9429090E943609E8
:1017800011B88FEF84B917B81AB88EE68093450167
:10179000109243011092420122E0209341011092E5
:1017A00040018EEC80933F0110925B0110925A0130
:1017B0001092590131E0309365011092640110924A
:1017C0006301109262011092610110923E01109229
:1017D0003D0110923C0110923801109237018EE5C4
:1017E00091E090933601809335018CE291E09093E3
:1017F00032018093310110921A011092190184EC88
:1018000099E090931801809317011092440120935E
:101810002F0148E740932E0110922D0110922C01C8
:1018200084E18093280183E2809327018EE08093F6
:101830002B0182EF80932A01309329011092260117
:101840001092250182E390E090932401809323017C
:1018500010922201109221018FE080931E012093AB
:101860001D0182E380931C019AE090931B019CE888
:10187000909316011092150194E690931401109222
:101880001201809311011092100110920F01109219
:101890000E0110920D018AEF90E090930C0180935D
:1018A0000B0188E790E090930A0180930901109260
:1018B00008011092070184E690E09093060180935E
:1018C00005013093600110925F0110925E0184E087
:1018D00080935D0180935C01309358011092570111
:1018E000109256011092550180EA80935401109293
:1018F00053011092520140935101109250012093D4
:101900004F0110924E0184EC80934D0130934C01B5
:1019100010924B0110924A0180E590E090934901AA
:101920008093480120934701209346010E946E084E
:1019300081110E9477088FEF8AB90E94AF080E9438
:10194000BE048FE19EE40197F1F700C000000E9401
:10195000D9048091590190E00E94AC000E94740764
:10196000809156018111EBCF4091000160910101FE
:1019700085E290E00E945A09809157018823F9F28C
:101980006091010185E290E00E945109D8CF86E67E
:1019900091E00C94180986E691E00C941909EE0F79
:1019A000FF1F0590F491E02D099410E0C8ECD0E001
:1019B00004C0FE010E94D10C2296CA3CD107C9F78F
:0419C000F894FFCFC9
:0419C40002012500F7
:00000001FF
