:100000000C943E000C9448000C9448000C9448005A
:100010000C9448000C9448000C9448000C94480040
:100020000C9448000C9448000C9448000C94480030
:100030000C9448000C9448000C9448000C94480020
:100040000C9448000C9448000C9448000C94480010
:100050000C9448000C9448000C9448000C94480000
:100060000C9448000C9448000C9448000C944800F0
:100070000C9448000C9448000C94480011241FBEB6
:10008000CFEFD8E0DEBFCDBF0E947B000C94B00064
:100090000C9400008FEF84B911B8089510927C0081
:1000A00086E880937A00089510927A0008958091EE
:1000B0007C00807E80937C0080917C006770682B40
:1000C00060937C0080917A00806480937A008091B4
:1000D0007A0084FFFCCF80917A00806180937A005F
:1000E0002091780030917900932F80E0AC01420F8D
:1000F000511DCA010895CF93DF931F92CDB7DEB78C
:100100000E944A0012E001E0CE0101960E944E00DA
:1001100060E0CE0101960E945700969587959695CE
:100120008795813E10F415B903C08B3E30F005B9B8
:100130008FE19EE40197F1F70CC015B98FE097E2CB
:100140000197F1F700C0000005B98FE097E2019731
:10015000F1F700C00000CE0101960E945400D4CFF8
:04016000F894FFCF41
:00000001FF
