:100000000C943E000C9450000C9450000C94500042
:100010000C9450000C9450000C9450000C94500020
:100020000C9450000C9450000C9450000C94500010
:100030000C9450000C9452000C9450000C945000FE
:100040000C9450000C9450000C9450000C945000F0
:100050000C9450000C9450000C9450000C945000E0
:100060000C9450000C9450000C9450000C945000D0
:100070000C9450000C9450000C94500011241FBE9E
:10008000CFEFD8E0DEBFCDBF11E0A0E0B1E001C00E
:100090001D92A130B107E1F70E9492000C94A600D6
:1000A0000C9400001F920F920FB60F9211248F93A1
:1000B0009F938091000191E089278093000115B8FA
:1000C00080910001811195B99F918F910F900FBE82
:1000D0000F901F901895F89410928000E1E8F0E0DE
:1000E0001082109285001092840090938900809372
:1000F0008800808188608083808185608083EFE6CE
:10010000F0E080818260808378940895F8948FEF86
:1001100084B91AB8E89AE9E6F0E0808183608083C8
:10012000789408950E94860085E89EE10E946B0005
:100130002FEF81E19AE7215080409040E1F700C025
:10014000000083E49FE00E946B00FFCFF894FFCF94
:00000001FF
